:100000000C9477000C949F000C949F000C949F001C
:100010000C949F000C949F000C949F000C949F00E4
:100020000C949F000C949F000C949F000C949F00D4
:100030000C949F000C949F000C949F000C949F00C4
:100040000C944B1F0C949F000C94191F0C94F31EDE
:100050000C949F000C949F000C949F000C949F00A4
:100060000C94951F0C949F000000000800020100F2
:100070000003040700000000000000004E6F207322
:1000800065206465746563746120656C2073656EBA
:10009000736F722032004E6F207365206465746543
:1000A00063746120656C2073656E736F722031001C
:1000B00000000000250028002B00000000002400A4
:1000C00027002A00040404040404040402020202B7
:1000D000020203030303030301020408102040800B
:1000E000010204081020010204081020B420112489
:1000F0001FBECFEFD8E0DEBFCDBF28E0AEEFB2E04D
:1001000001C01D92A034B207E1F712E0A0E0B1E017
:10011000ECE7F8E402C005900D92AE3FB107D9F7C5
:1001200010E0C7E7D0E004C02197FE010E942F2411
:10013000C637D107C9F70E941D210C943C240C94AA
:100140000000E7EFF3E0A089B18982E08C93A485F9
:10015000B5851C92A685B78580E18C93108EA48905
:10016000B58986E08C93A289B3898C9180618C9348
:10017000A289B3898C9188608C93A289B3898C9170
:1001800080688C930288F389E02D80818F7D808345
:100190000895CF93DF9300D000D0CDB7DEB719829A
:1001A0001A821B821C8289819A81AB81BC818A3F21
:1001B0009105A105B10568F4000089819A81AB81A0
:1001C000BC810196A11DB11D89839A83AB83BC8339
:1001D000EACF80E00F900F900F900F90DF91CF91BA
:1001E00008954F925F926F927F928F929F92AF92FB
:1001F000BF92CF92DF92EF92FF920F931F93CF9314
:10020000F9010FEF1FEF98010083118322833383DD
:100210004A015B01B3E0B694A79497948794BA958A
:10022000D1F76A017B0127E0C222DD24EE24FF24FE
:1002300095018401C0E0063011052105310508F063
:1002400041C0C1113FC0DC01A00FB11F6C91412C16
:10025000512C320180169106A206B30649F470E0D3
:100260000C2C02C0759567950A94E2F726013701B8
:10027000462F50E060FF17C0B901A801A3E0440F6A
:10028000551F661F771FAA95D1F7440E551E661E8F
:10029000771E4082518262827382C1E00F5F1F4FDE
:1002A0002F4F3F4FC8CFBA01759567954FEF441A4E
:1002B000540A640A740A48E0441651046104710443
:1002C000B9F6ECCFCF911F910F91FF90EF90DF9097
:1002D000CF90BF90AF909F908F907F906F905F90E6
:1002E0004F9008950895089590E0FC01E852FF4F63
:1002F00024918C539F4FFC018491882399F090E0C6
:10030000880F991FFC01E654FF4FA591B491FC01A1
:10031000E055FF4F859194918FB7F894EC91E22BC3
:10032000EC938FBF0895AF92BF92CF92DF92EF927E
:10033000FF920F931F93CF93DF936C017B018B018F
:10034000040F151FEB015E01AE18BF08C017D107DF
:1003500059F06991D601ED91FC910190F081E02D69
:10036000C6010995892B79F7C501DF91CF911F91BE
:100370000F91FF90EF90DF90CF90BF90AF900895D6
:100380000895FC01538D448D252F30E0842F90E09B
:10039000821B930B541710F0CF9608950197089580
:1003A000FC01918D828D981761F0A28DAE0FBF2F49
:1003B000B11D5D968C91928D9F5F9F73928F90E09F
:1003C00008958FEF9FEF0895FC01918D828D98170E
:1003D00031F0828DE80FF11D858D90E008958FEF4B
:1003E0009FEF0895FC01918D228D892F90E0805C14
:1003F0009F4F821B91098F739927089587EF93E090
:100400000E94F20121E0892B09F420E0822F089557
:1004100080E090E0892B29F00E94FE0181110C946C
:1004200000000895FC01A48DA80FB92FB11DA35A97
:10043000BF4F2C91848D90E001968F739927848F04
:10044000A689B7892C93A089B1898C918370806427
:100450008C93938D848D981306C00288F389E02DC8
:1004600080818F7D80830895EF92FF920F931F9379
:10047000CF93DF93EC0181E0888F9B8D8C8D981357
:100480001AC0E889F989808185FF15C09FB7F89463
:10049000EE89FF896083E889F989808183708064AF
:1004A00080839FBF81E090E0DF91CF911F910F91FA
:1004B000FF90EF900895F62E0B8D10E00F5F1F4F09
:1004C0000F731127E02E8C8D8E110CC00FB607FC18
:1004D000FACFE889F989808185FFF5CFCE010E94A6
:1004E0001202F1CFEB8DEC0FFD2FF11DE35AFF4F00
:1004F000F0829FB7F8940B8FEA89FB898081806234
:10050000CFCFCF93DF93EC01888D8823B9F0AA89F0
:10051000BB89E889F9898C9185FD03C0808186FDBE
:100520000DC00FB607FCF7CF8C9185FFF2CF80810D
:1005300085FFEDCFCE010E941202E9CFDF91CF916E
:10054000089590E0FC01E859FF4F2491FC01E85226
:10055000FF4F3491FC01EC53FF4FE491EE23C9F0BF
:10056000222339F0233001F1A8F4213019F122308F
:1005700029F1F0E0EE0FFF1FE055FF4FA591B49178
:100580008FB7F894EC91611126C030953E233C93CF
:100590008FBF08952730A9F02830C9F0243049F7DB
:1005A000809180008F7D03C0809180008F77809341
:1005B0008000DFCF84B58F7784BDDBCF84B58F7D9E
:1005C000FBCF8091B0008F778093B000D2CF809125
:1005D000B0008F7DF9CF3E2BDACF3FB7F8948091F2
:1005E000B5039091B603A091B703B091B80326B5B7
:1005F000A89B05C02F3F19F00196A11DB11D3FBF5B
:10060000BA2FA92F982F8827BC01CD01620F711D29
:10061000811D911D42E0660F771F881F991F4A9523
:10062000D1F708958F929F92AF92BF92CF92DF92AF
:10063000EF92FF924B015C010E94ED026B017C0185
:100640000E94ED026C197D098E099F09683E734076
:1006500081059105A8F321E0821A9108A108B1084B
:1006600088EEC80E83E0D81EE11CF11C81149104B1
:10067000A104B10429F7FF90EF90DF90CF90BF90D5
:10068000AF909F908F9008952FB7F8946091B10329
:100690007091B2038091B3039091B4032FBF08957A
:1006A00020916603260F3327331F21323105ECF4E6
:1006B00020918A03FC0190E080E0243069F082E020
:1006C0000895A09166032191AC014A5B5C4FA40F91
:1006D000B52FB11D2C930196861798F38091660370
:1006E000680F6093660380E0089581E0089510929A
:1006F0008A0381E080938C0310928B0361E082E196
:100700000E94A10261E083E10E94A102E9EBF0E016
:1007100080818E7F808380818D7F808388E4809339
:10072000B80085E48093BC000895CF93DF9391E0F7
:10073000909345038823B9F0C091B800D091BA00D6
:100740008091BC008A7B8093BC0060E082E10E94C3
:10075000A10260E083E10E94A1020E947703D0938E
:10076000BA00C093B800DF91CF910895E091F603ED
:100770008091F503E81730F4F0E0E05EFC4F8081F3
:1007800090E008958FEF9FEF08959091F603809188
:10079000F5032FEF3FEF981748F4E92FF0E0E05E04
:1007A000FC4F208130E09F5F9093F603C9010895CC
:1007B0008091F5039091F603891B990B0895CF92D0
:1007C000DF92EF92FF920F931F93CF93DF937C0101
:1007D000CB018A0120911F03222389F0EB016B01D9
:1007E000C40ED51ECC15DD0569F06991D701ED91D8
:1007F000FC910190F081E02DC7010995F3CF642FA2
:100800000E945003C801DF91CF911F910F91FF907B
:10081000EF90DF90CF900895CF93DF931F92CDB7E5
:10082000DEB7698320911F032223F9F02091F3039F
:10083000203258F021E030E0FC013383228390E045
:1008400080E00F90DF91CF9108958091F403E82F1D
:10085000F0E0E150FD4F998190838F5F8093F40326
:100860008093F30381E090E0ECCF61E0CE0101964C
:100870000E945003F7CFCF92DF92EF92FF920F9337
:100880001F93CF93DF93D091F30381E0D13208F02F
:100890009CC0C091FE020E94ED026B017C01809120
:1008A0008A0381116CC082E080938A0381E0809387
:1008B0008C038FEF809389031092AE03D093AD0326
:1008C000AFEFB2E0EDE8F3E080E0D8138DC0109216
:1008D000AF038091AF03CC0FC82BC093AF038091BF
:1008E0008B03813009F084C010928B030E94ED02CB
:1008F0006B017C018091AF038093BB008091410329
:1009000090914203A0914303B0914403892B8A2B19
:100910008B2BA1F00E94ED02009141031091420344
:1009200020914303309144036C197D098E099F097E
:10093000061717072807390708F442C08091BC0042
:1009400083FDD8CF85EC8093BC000E94ED026B0143
:100950007C0180918A03823009F44CC08091890324
:100960008F3F09F469C080918903803209F466C021
:1009700080918903803309F463C084E026C08091AC
:10098000410390914203A0914303B0914403892B0A
:100990008A2B8B2B09F483CF0E94ED020091410337
:1009A0001091420320914303309144036C197D0957
:1009B0008E099F09061717072807390708F06FCF18
:1009C000809140030E94950385E01092F4031092F9
:1009D000F30310921F03DF91CF911F910F91FF90AE
:1009E000EF90DF90CF9008959D9191938F5F6DCFA1
:1009F00085EEA9CF8091410390914203A0914303DA
:100A0000B0914403892B8A2B8B2B09F4A2CF0E942F
:100A1000ED02009141031091420320914303309174
:100A200044036C197D098E099F09061717072807CB
:100A3000390708F08ECFC4CF80E0C7CF82E0C5CFA2
:100A400083E0C3CF90E080E008958F929F92AF92B1
:100A5000BF92CF92DF92EF92FF920F931F93CF93AB
:100A6000DF936A014801E70191E090931F038093AF
:100A7000FE021092F4031092F303E881F9810190D1
:100A8000F081E02DC70109958C0C9D1CC814D90478
:100A900059F0E881F9810190F081E02DD6016D9146
:100AA0006D01CE010995F2CFCE010E943B0490E08A
:100AB00080E0DF91CF911F910F91FF90EF90DF9039
:100AC000CF90BF90AF909F908F900895EF92FF923C
:100AD0000F931F93CF93DF9300D0CDB7DEB7FC0108
:100AE000EF5BFE4F70813496E080F1804A8359833A
:100AF00002E010E020E030E0AE014F5F5F4F872F53
:100B00000E942505892B51F08CEE0F900F90DF91FC
:100B1000CF911F910F91FF90EF90089580E0F5CF56
:100B2000EF92FF920F931F93CF93DF931F92CDB756
:100B3000DEB7FC01EF5BFE4F70813496E080F18000
:100B4000498301E010E020E030E0AE014F5F5F4FED
:100B5000872F0E942505892B49F08CEE0F90DF919D
:100B6000CF911F910F91FF90EF90089580E0F6CF05
:100B7000EF92FF920F931F93AB01FC01EB5BFE4FD3
:100B8000E080F1808F5B9E4F06E010E020E030E0D7
:100B900060EBFC0180810E942505892B31F08CEEF1
:100BA0001F910F91FF90EF90089580E0F9CFFC0125
:100BB00001900020E9F73197AF01481B590BBC01A8
:100BC00087EF93E00C9493018F929F92AF92BF9224
:100BD0000F931F93CF93DF93CDB7DEB7A1970FB6D7
:100BE000F894DEBF0FBECDBF19A2423008F44AE030
:100BF0008E010F5D1F4F842E912CB12CA12CA501CD
:100C000094010E94DF23E62FB901CA01EA30F4F40F
:100C1000E05DD801EE938D01232B242B252B79F752
:100C200090E080E0109719F0CD010E94D705A196C1
:100C30000FB6F894DEBF0FBECDBFDF91CF911F91ED
:100C40000F91BF90AF909F908F900895E95CE1CF96
:100C50000F931F93CF93DF938C01D0E0C0E0F80196
:100C6000EC0FFD1F6491662341F087EF93E00E9433
:100C70003402892B11F02196F2CF87E292E00E9494
:100C8000D7058C0F9D1FDF91CF911F910F91089574
:100C9000CF93DF93D0E0C0E0009719F00E94D70512
:100CA000EC0187E292E00E94D7058C0F9D1FDF9137
:100CB000CF9108954F925F926F927F928F929F9201
:100CC000AF92BF92CF92DF92EF92FF920F931F935A
:100CD000CF93DF93D82F6A01480181E080931F03EF
:100CE000D093FE021092F4031092F303D701ED911A
:100CF000FC910190F081E02DC7010995C7010E9488
:100D00003B040E94ED022B013C0180918A0381117A
:100D100066C0C82D81E080938A0380938C039FEF87
:100D2000909389031092AE03980D9093AD03809336
:100D3000AF038091AF03DD0FD82BD093AF03809129
:100D40008B03813009F086C010928B030E94ED0264
:100D50002B013C018091AF038093BB008091410344
:100D600090914203A0914303B0914403892B8A2BB5
:100D70008B2BA1F00E94ED020091410310914203E0
:100D8000209143033091440364197509860997093A
:100D9000061717072807390708F442C08091BC00DE
:100DA00083FDD8CF85EC8093BC000E94ED022B011F
:100DB0003C0180918A03813009F44EC08091AE03DA
:100DC0008C1710F4C091AE03EDE8F3E0A0E2B3E0BD
:100DD00080E08C1751F191919D938F5FFACF8091B4
:100DE000410390914203A0914303B0914403892BA6
:100DF0008A2B8B2B09F489CF0E94ED0200914103CD
:100E00001091420320914303309144036419750902
:100E100086099709061717072807390708F075CFBD
:100E2000809140030E949503C0E01092F603C093A6
:100E3000F5038C0C9D1CC814D90481F1D701ED91E8
:100E4000FC910284F385E02DC7010995F601819399
:100E50006F01F1CF85EEA7CF8091410390914203BE
:100E6000A0914303B0914403892B8A2B8B2B09F467
:100E7000A0CF0E94ED020091410310914203209106
:100E800043033091440364197509860997090617CD
:100E900017072807390708F08CCFC2CF90E080E011
:100EA000DF91CF911F910F91FF90EF90DF90CF9046
:100EB000BF90AF909F908F907F906F905F904F907A
:100EC00008952F923F924F925F926F927F928F92EE
:100ED0009F92AF92BF92CF92DF92EF92FF920F93C9
:100EE0001F93CF93DF93CDB7DEB72F970FB6F8944C
:100EF000DEBF0FBECDBF9C878B876D875F874E8718
:100F00003901170128012F82388649865A8610E058
:100F100000E0EE24E394F12C0A151B0509F461C0EE
:100F20009E01295F3F4FB201A1018E859F850E94DE
:100F3000F1004F81588569857A854F3F2FEF520721
:100F40006207720709F49CC0DB01CA018C549F4FF1
:100F5000AF4FBF4FE6E0B695A79597958795EA9571
:100F6000D1F7880F991F880F991F8D509E4F21E050
:100F7000FC0180819181A281B381892B8A2B8B2BEB
:100F800009F420E0FD85F2137BC01A012B0133E048
:100F900056944794379427943A95D1F7DB01CA01C8
:100FA00087709927AA27BB2726E02216310441041F
:100FB000510468F4F301E20DF31D970102C0220F02
:100FC000331F8A95E2F7C9019081892B80831A012A
:100FD0002B013FEF231A330A430A530A0F5F1F4FB7
:100FE0009BCFB12CF4012082318242825382B11016
:100FF0002DC0B3018B859C850E94B805B82E811148
:1010000025C0EB85FC85EB5BFE4FE080F180EB8536
:10101000FC85EF5BFE4F06E010E020E030E0AE0123
:101020004F5F5F4F60EB80810E945A06892B11F061
:101030009CEEB92EF301DE011196C30106963191A3
:101040002D91321320C0E817F907C9F78B2D2F9681
:101050000FB6F894DEBF0FBECDBFDF91CF911F91C9
:101060000F91FF90EF90DF90CF90BF90AF909F9047
:101070008F907F906F905F904F903F902F9008954A
:101080002EECB22EAFCF8EECB82EE0CFCF92DF9207
:10109000EF92FF920F931F93CF93DF9300D000D076
:1010A000CDB7DEB76A01FC01EB5BFE4FE080F1805B
:1010B0008F5B9E4F04E010E020E030E0AE014F5F18
:1010C0005F4FFC0180810E945A0649815A81542752
:1010D0004527542770E060E0762F652F542F442772
:1010E0002B81422B762F652F542F44272C81422BA6
:1010F000F6014083518362837383892B71F480E00E
:101100000F900F900F900F90DF91CF911F910F9143
:10111000FF90EF90DF90CF9008958CEEF1CFCF92BB
:10112000DF92EF92FF920F931F93CF93DF9300D044
:10113000CDB7DEB76A01FC01EB5BFE4FE080F180CA
:101140008F5B9E4F02E010E020E030E0AE014F5F89
:101150005F4FFC0180810E945A0629813A81322723
:1011600023273227F60131832083892B61F480E025
:101170000F900F90DF91CF911F910F91FF90EF9003
:10118000DF90CF9008958CEEF3CFEF92FF920F9304
:101190001F93CF93DF9300D0CDB7DEB78C017A01D8
:1011A0006330710509F449C090F46130710509F1AB
:1011B00062307105E1F1F80181A992A9A3A9B4A94E
:1011C000F70180839183A283B38380E049C06630B6
:1011D000710588F7AE014F5F5F4F64E60E948F088C
:1011E00081113EC0298180E0922F990FB0E0A0E0EC
:1011F000E7CFAE014F5F5F4F64E40E948F0881111B
:101200002FC0998120E0392F330FA90170E060E0F1
:10121000232BD1F0F7014083518362837383F8015C
:1012200045AB56AB67AB70AF91E096A319C0FC011C
:1012300081AD92ADA3ADB4ADC3CFFC01FD9680816D
:101240009181A281B381BCCFF80145A956A967A9B4
:1012500070ADF7014083518362837383F80116A256
:101260000F900F90DF91CF911F910F91FF90EF9012
:1012700008958F929F92AF92BF92CF92DF92EF929A
:10128000FF920F931F93CF93DF9300D0CDB7DEB7BC
:10129000962ED42E822EFC01EF5BFE4FC0805C01A7
:1012A0002BEBA21A2EEFB20AF501E080F18001E0EB
:1012B00010E020E030E0AE014E5F5F4F8C2D0E94C9
:1012C0005A06892BA9F42A812D2128292A83F50180
:1012D000E080F180298301E010E020E030E0AE0101
:1012E0004F5F5F4F692D8C2D0E942505892B81F062
:1012F0008CEE0F900F90DF91CF911F910F91FF9087
:10130000EF90DF90CF90BF90AF909F908F90089517
:1013100080E0EFCFEF92FF920F931F93FC01EB5B06
:10132000FE4FE080F1808F5B9E4F01E010E020E0F7
:1013300030E0FC0180810E945A06892B31F08CEE4E
:101340001F910F91FF90EF90089580E0F9CFEF92F9
:10135000FF920F931F93CF93DF931F92CDB7DEB70A
:101360007C0100E041E06BE0C7010E949005182F6E
:1013700040E06BE0C7010E949005182BAE014F5F63
:101380005F4F63E1C7010E948A09812B0F5F99813A
:10139000977061F0033061F0882321F30F90DF91A3
:1013A000CF911F910F91FF90EF9008950330B1F707
:1013B00084EFF4CF9F92AF92BF92CF92DF92EF92E1
:1013C000FF920F931F93CF93DF931F92CDB7DEB79A
:1013D0007C015B016A01922E198241E06FEF0E944D
:1013E0009005182F40E060E0C7010E949005182B7F
:1013F00040E06FEFC7010E949005182B992031F053
:10140000A5016BECC7010E948A09182B002341F04B
:10141000AE014F5F5F4F6EEEC7010E948A09182B25
:1014200041E06FEFC7010E949005182B41E060E09A
:10143000C7010E949005182B40E06FEFC7010E9482
:10144000900599819F7EF6019083812B0F90DF910B
:10145000CF911F910F91FF90EF90DF90CF90BF90B1
:10146000AF909F9008950F931F93CF93DF931F9298
:10147000CDB7DEB78A01AE014F5F5F4F613081F0BB
:1014800060E50E948A09811105C099819F5F990FCB
:10149000F80190830F90DF91CF911F910F910895E4
:1014A00060E7EFCFCF92DF92EF92FF921F93CF933F
:1014B000DF931F92CDB7DEB77C0140E063E80E9466
:1014C0009005182F811117C0D12CC12CAE014F5F90
:1014D0005F4F63E8C7010E948A09182F8981811133
:1014E0000AC0111108C08FEFC81AD80A88ECC816B4
:1014F000D10461F719EF41E063E8C7010E9490054C
:10150000812B0F90DF91CF911F91FF90EF90DF9093
:10151000CF900895CF92DF92EF92FF920F931F9397
:10152000CF93DF931F92CDB7DEB77C0110E000E0D0
:101530006C018EECC80ED11CF6018081AE014F5FAC
:101540005F4F8430A9F463E1C7010E948A09998141
:10155000292F2770987111F58823D9F00F90DF910A
:10156000CF911F910F91FF90EF90DF90CF90089552
:1015700064E1C7010E948A098111F0CF998190FD31
:10158000EDCF0F5F1F4F083C110531F00E94C900DD
:10159000D3CF2430B1F7E2CF89EFE0CF8AEFDECFAF
:1015A000CF93DF93EC01462F416060E00E949005ED
:1015B000811111C0CE010E948A0A81110CC0CE0196
:1015C0000E94A709811107C040E060E0CE01DF91D1
:1015D000CF910C949005DF91CF9108950F931F93B5
:1015E000CF93DF931F92CDB7DEB78B011982AE0187
:1015F0004F5F5F4F61E00E948A09811116C0998197
:1016000094FB332730F9F801308393FB332730F90B
:10161000328392FB332730F9318396FB222720F95E
:101620002383991F9927991F94830F90DF91CF915E
:101630001F910F9108952F923F924F925F926F9258
:101640007F928F929F92AF92BF92CF92DF92EF9252
:10165000FF921F93CF93DF93CDB7DEB72B970FB6D3
:10166000F894DEBF0FBECDBF6C011A011B861F822E
:101670001E82623009F06EC0AE01465F5F4F60E0CF
:101680000E94330A182F811108C0AE01455F5F4FD9
:1016900066E4C6010E948A09182FAA85B0E020E0FE
:1016A0003FE24AE350E00E9401242B013C0124EF79
:1016B000420E21E0521E611C711CCB84D12CF12CF6
:1016C000E12C8FEFC81AD80AE80AF80A98EE892E9A
:1016D00093E0992EA12CB12CC301B201A501940174
:1016E0000E94DF23CA01B901A70196010E94CF23FE
:1016F0006B017C01C301B20120ED37E040E050E016
:101700000E94DF23C701B601620F731F841F951F5C
:10171000A50194010E94DF23F101208331834283DC
:101720005383812F2B960FB6F894DEBF0FBECDBF2B
:10173000DF91CF911F91FF90EF90DF90CF90BF90FE
:10174000AF909F908F907F906F905F904F903F9061
:101750002F900895633009F043C0AE01465F5F4F9C
:1017600060E00E94330A182F20E030E0A9018111C7
:10177000D3CFAE01465F5F4F60E0C6010E94330ADF
:10178000182F811108C0AE014A5F5F4F61E5C601A5
:101790000E948F08182FEE81FF81AA85B0E020E01B
:1017A0003FE24AE350E00E9401242B013C0124EF78
:1017B000420E21E0521E611C711C6F01DD24F12CD0
:1017C000E12C04C0CC0CDD1CEE1CFF1CFA95D2F7FA
:1017D0008FEFC81AD80AE80AF80AEE24FF2476CF59
:1017E000BE016F5F7F4F0E94EE0A8C81882351F10A
:1017F000AE01465F5F4F60E0C6010E94330A182FBA
:10180000F12CE12C81111BC0AE014A5F5F4F61E5F5
:10181000C6010E948F08182F2E813F81C901992788
:10182000B0E0A0E004C0880F991FAA1FBB1F3A9523
:10183000D2F70196A11DB11D7C01112329F0D12CF5
:10184000C12C25C0F12CE12CAE01465F5F4F61E059
:10185000C6010E94330A182F8111F1CFAE01485FF3
:101860005F4F61E7C6010E948F08182F28853985D0
:10187000C9019927B0E0A0E004C0880F991FAA1FF2
:10188000BB1F3A95D2F70196A11DB11D6C01AA8527
:10189000B0E020E03FE24AE350E00E9401242B0147
:1018A0003C01E4EF4E0EE1E05E1E611C711C88EE0F
:1018B000882E83E0982EA12CB12CC301B201A50182
:1018C00094010E94DF23D601AE19BF090E940124B2
:1018D0000FCF4F925F926F927F92BF92CF92DF9223
:1018E000EF92FF920F931F93CF93DF9300D000D01E
:1018F000CDB7DEB78A01AE014F5F5F4F0E941B0B71
:10190000B82E81112AC069817A818B819C8128EE51
:10191000422E23E0522E612C712CA30192010E94D1
:10192000DF2369017A019B01AC01AFEFBFEF0E9499
:1019300001246C507E4F8F4F9F4FA30192010E9454
:10194000DF237601DD24CC24C20ED31EE41EF51E57
:10195000F801C082D182E282F3828B2D0F900F902A
:101960000F900F90DF91CF911F910F91FF90EF900B
:10197000DF90CF90BF907F906F905F904F900895D1
:101980005F926F927F928F929F92AF92BF92CF920F
:10199000DF92EF92FF920F931F93CF93DF93CDB718
:1019A000DEB761970FB6F894DEBF0FBECDBF7C01E6
:1019B0008B01FC018089FB018083AE014A5F5F4F90
:1019C00068EFC7010E948F08582E81113AC1AE01FD
:1019D0004F5F5F4F64E0C7010E944608582E811197
:1019E00030C12E813F812115310569F050E040E082
:1019F00069817A818B819C810E94DF23F801268393
:101A0000378340875187F80186819781A085B1850A
:101A1000F701868B978BA08FB18FF8011286AE01EC
:101A20004F5F5F4F60E2C7010E948F08582E8111FF
:101A300008C189819A81009709F01AC1F701858D43
:101A4000968DA78DB0A1F80185879687A787B08B63
:101A5000F701128EAE014F5F5F4F68E2C7010E942F
:101A60008F08582E8111EDC089819A819F70811550
:101A7000F8E09F0708F090514AEF489F9001499F76
:101A8000300D1124C901330FAA0BBB0BF801818B58
:101A9000928BA38BB48B5801F1E2AF0EB11C4701BE
:101AA00025E2820E911C380185E1680E711CD12C53
:101AB000C12CA501B601C7010E94C508582E81118D
:101AC000C0C0F40181914F01F30181933F01FFEF09
:101AD000CF1ADF0A24E0A20EB11C86E0C816D1049A
:101AE00041F7AE014F5F5F4F61E0C7010E948A0975
:101AF000582E8111A6C08981F701E35EFE4F8083D5
:101B000087FFCAC081E0F80181AFF80181ADF7011C
:101B1000E75BFF4F808380ED97E0A0E0B0E08A872D
:101B20009B87AC87BD871E821F821886198686E335
:101B30009BE0A0E0B0E0F80182839383A483B583A7
:101B4000BE016F5F7F4FC7010E94EE0A582E8111C0
:101B500078C08981811107C08A81811104C08B817D
:101B6000882309F43EC0AE01465F5F4F62E0C701C3
:101B70000E941B0B8111C1C089818823A9F08A852D
:101B80009B85AC85BD85825B9D4FAF4FBF4FF801F4
:101B90004281538164817581840F951FA61FB71FF1
:101BA00082839383A483B5838B81882309F477C0D0
:101BB0008A859B85AC85BD858E549D4FAF4FBF4FA9
:101BC000880F991FAA1FBB1FF801428153816481AE
:101BD0007581840F951FA61FB71F82839383A483EB
:101BE000B5838C81811168C08D81882301F1AE019C
:101BF000425F5F4F64E0C7010E941B0B8E849F848D
:101C0000A888B988F6E28F0EF2E09F1EA11CB11CD5
:101C1000F8014281538164817581480D591D6A1D07
:101C20007B1D4283538364837583811166C0F801F1
:101C300082819381A481B581F701828B938BA48BE0
:101C4000B58B852D61960FB6F894DEBF0FBECDBF64
:101C5000DF91CF911F910F91FF90EF90DF90CF9088
:101C6000BF90AF909F908F907F906F905F900895FE
:101C700033E0880F991F3A95E1F7B0E0A0E0F80152
:101C800085879687A787B08BF701858F968FA78F5B
:101C9000B0A381E0828FDECEF80111AE36CF8A810B
:101CA000882309F49ECF8A859B85AC85BD858C569B
:101CB0009D4FAF4FBF4F88CFAE014A5F5F4F63E08C
:101CC000C7010E941B0B8E809F80A884B984F4E911
:101CD0008F0EF2E09F1EA11CB11CF80142815381BE
:101CE00064817581480D591D6A1D7B1D4283538394
:101CF00064837583882309F477CF582EA2CF2F925F
:101D00003F924F925F926F927F928F929F92AF928B
:101D1000BF92CF92DF92EF92FF920F931F93CF93D8
:101D2000DF93CDB7DEB769970FB6F894DEBF0FBE6D
:101D3000CDBF00ED17E020E030E00B871C872D873A
:101D40003E871F86188A198A1A8A40322EE4520763
:101D500061057105E0F45CEFB52E8B2D69960FB629
:101D6000F894DEBF0FBECDBFDF91CF911F910F91D1
:101D7000FF90EF90DF90CF90BF90AF909F908F90AB
:101D80007F906F905F904F903F902F9008954E8B73
:101D90005F8B688F798F8C01BE016A5F7F4F0E94D5
:101DA000EE0AB82E8111D9CFCE88DF88E88CF98C65
:101DB00088EEC81A88E0D80AE108F1088E818111FE
:101DC00006C08F81811103C088858823C1F1AE01CF
:101DD000455F5F4F62E0C8010E941B0B81110AC181
:101DE0008E81882391F08B859C85AD85BE85825B35
:101DF0009D4FAF4FBF4F8C159D05AE05BF0508F039
:101E0000AACFC81AD90AEA0AFB0A8885882309F4E6
:101E100071C08B859C85AD85BE858E549D4FAF4F1F
:101E2000BF4F880F991FAA1FBB1F8C159D05AE05BC
:101E3000BF0508F090CFC81AD90AEA0AFB0A8985BB
:101E40008823D9F0AE01415F5F4F63E0C8010E9473
:101E50001B0B4F85588969897A894C565D4F6F4FA6
:101E60007F4F4C155D056E057F0508F074CF81111D
:101E7000C1C0C41AD50AE60AF70A8A85882309F47C
:101E80006CCFBE016F5F7F4FC8010E94EE0A8C814C
:101E90008823E9F1AE014B5E5F4F60E0C8010E940C
:101EA000330AB82E81111CC0AE014D5E5F4F61E553
:101EB000C8010E948F08B82E8B899C891C0133248D
:101EC000512C412C04C0220C331C441C551C9A95E7
:101ED000D2F79FEF291A390A490A590ABB20C9F0DB
:101EE0008E899F89A88DB98DF801828B938BA48BE5
:101EF000B58B33CF8F81882309F4A1CF8B859C8547
:101F0000AD85BE858C569D4FAF4FBF4F8ECF312CC8
:101F1000212CAE014B5E5F4F61E0C8010E94330A85
:101F2000B82E8111DDCFA6E2CA1AA2E0DA0AE108D2
:101F3000F108AD89B0E020E03FE24AE350E00E94C2
:101F400001244B015C01B4EF8B0EB1E09B1EA11C80
:101F5000B11CA8EEB3E0A70196010E9401242B0159
:101F60003C01C501B40120ED37E040E050E00E94A3
:101F7000DF23420E531E641E751EC501B40128EEF8
:101F800033E040E050E00E94DF23C301B2010E9431
:101F9000DF23220E331E21143104E1F04101B12C64
:101FA000A12CE1E08E1A9108A108B10890E080E030
:101FB000B501A4014427452B462B472B31F0B6949D
:101FC000A794979487940196F3CF982F88271C01A4
:101FD000280C391CA10161E7C8010E946605B82ED2
:101FE00081117ECFF801E153FF4FC082D182E2829E
:101FF000F38276CFB82EB1CE7F928F929F92AF921E
:10200000BF92CF92DF92EF92FF920F931F93CF93E5
:10201000DF931F92CDB7DEB77C015B016A01722EA0
:102020004C0183EE881A8EEF980AF4011081198210
:1020300041E061E0C7010E94900581114AC060E45F
:10204000C7010E94D00A811144C0F1E07F121AC07A
:1020500000E021E0AE014F5F5F4FB501C7010E9474
:10206000DA09882389F00F90DF91CF911F910F91AA
:10207000FF90EF90DF90CF90BF90AF909F908F90A8
:102080007F900895F501108242E061E0C7010E944F
:102090009005811124C060E0C7010E94D00A81111F
:1020A0001EC0F1E07F1218C001E020E0A601BE01D1
:1020B0006F5F7F4FC7010E94DA098111D4CF412F92
:1020C00061E0C7010E9490058111CDCFF40110831A
:1020D000CACFF5011082C7CFF6011082F0CFF6010A
:1020E000F9CF2F923F924F925F926F927F928F9291
:1020F0009F92AF92BF92CF92DF92EF92FF920F9397
:102100001F93CF93DF93CDB7DEB7EC970FB6F8945C
:10211000DEBF0FBECDBF6C015B01DC0150961C928F
:1021200041E060E80E94900541E06FEFC6010E9427
:10213000900540E060E0C6010E949005F601E95D6F
:10214000FE4F408161E9C6010E94900541E060E0D8
:10215000C6010E94900540E06FEFC6010E94900505
:1021600040E060E8C6010E94900541E060E0C601E1
:102170000E949005811116C091E09983412C512C49
:102180003201BFEF4B1A5B0A6B0A7B0A998190FF01
:102190002AC08111B6C2E8EC4E16510461047104E4
:1021A000D1F489EFEC960FB6F894DEBF0FBECDBF29
:1021B000DF91CF911F910F91FF90EF90DF90CF9023
:1021C000BF90AF909F908F907F906F905F904F9057
:1021D0003F902F900895AE014F5F5F4F60E0C601C2
:1021E0000E948A09CECFF8EC4F16510461047104A5
:1021F000C1F28111D7CFC6010E948A0A8111D2CFC4
:1022000083E0F601E15EFE4F8083B696E080F180C8
:102210000CE010E020E030E0AE01465E5F4F64E18C
:10222000349780810E945A06892B11F08CEEBACF28
:10223000D50156961C925697F50110821182128292
:1022400013826CA170E0762F66272DA1620F711D9D
:1022500014961D921D921D921C921797E9A1F0E011
:10226000FE2FEE27FF0F2F01712C612C1C964D9233
:102270005D926D927C921F978BA190E0982F88279A
:10228000990F8C0130E020E050960D931D932D9313
:102290003C9353970C8D10E0102F00272D8D780163
:1022A000E20EF11CFCAEEBAE5596FC92EE9254970A
:1022B0009A8CD601A75CBE4F2D913C9111975B97EC
:1022C0008C90283E03E03007E9F1629FC001639FD4
:1022D000900D729F900D11248C509E4F68EE73E00C
:1022E0000E941B24D6015D96ED90FD900D911C91EE
:1022F00090975A962C91222329F12BAD3CAD2E9D1F
:10230000A0012F9D500D3E9D500D1124452F5527A6
:10231000E417F50741F460EE7AE8882009F4E3C099
:1023200068EB72E212C09F01DB010E940C24830162
:102330007F01E41AF50A01091109A80197010E9419
:10234000DF23B901882009F4CEC0CB01969587958B
:1023500096958795D50119969C938E9318976295BB
:10236000660F660F607C57966C931FA61EA6892D7C
:1023700090E07C0173E0F594E7947A95E1F7FAAE8A
:10238000E9AE09AD0F70902E09F4B2C089AD8D7021
:1023900011E018AB853029F084EF800F843008F00D
:1023A00018AA41E06FEFC6010E949005811107C095
:1023B000AE01425D5F4F66EBC6010E948F089EA58D
:1023C00020E0392F330F790110E000E0E9AAFAAAE2
:1023D0000BAB1CAB811105C040E06FEFC6010E9442
:1023E0009005F601EE5CFE4FE9A8FAA80BA91CA91E
:1023F000E082F18202831383811178C1D601959620
:102400008C909597882009F47FC0F501E484F584C9
:10241000068517855A968C9120E030E0A901882323
:1024200099F0A489B589F601258D368D478D50A187
:102430000E9401249B01AC0120583F4F4F4F5F4F3A
:10244000232F342F452F55272E0D3F1D401F511F81
:10245000A8EEB3E00E94012470588F4F9F4FBC013B
:1024600088279927F601E65DFE4F672B682B692BBD
:1024700009F041C08EEA97E8AFE8B2E0808391832B
:10248000A283B3831EEAE12E17E8F12E0FE812E0D3
:10249000EDAAFEAA0FAB18AFD5011B961C921E9297
:1024A0001A97AE01465D5F4F70E060E0C6010E9482
:1024B000C5084AA55BA56CA57DA54115510561051B
:1024C000710559F0FF24F3940DA91EA92FA938AD69
:1024D000401751076207730708F0F12C8823A9F011
:1024E000212C312C07C1F50171876087178A3DCFF8
:1024F00001E008AB56CF10821182128213821DAA0E
:102500001EAA1FAA18AEC8CFF12CD60197963C90F0
:10251000332009F4C5C0AE014A5D5F4F62E070E050
:10252000C6010E94C5084EA15FA168A579A5411505
:1025300051056105710559F0EE24E39409A91AA922
:102540002BA93CA9401751076207730708F0E12C3B
:10255000212C90E0811132C0D60198962C90222037
:1025600009F4A4C00BAD1CAD0115110509F49AC006
:10257000962D852D742D6627980150E040E00E942D
:10258000DF2329013A01AE014F5F5F4F63E070E046
:10259000C6010E94C50849815A816B817C81411521
:1025A00051056105710531F091E044165506660646
:1025B000770608F090E0882309F479C0D5011B96CE
:1025C0001C921E921A9780E0811002C0FF24F3949F
:1025D000F60136A1F3A6F4E09F1609F4B0C021E09D
:1025E000311120E0D6019C962C93311002C0EE24CC
:1025F000E394F601E5A6211001C091E0D6019E9674
:102600009C93F501808F9601265B3F4F99E1F9017C
:10261000DE01119601900D929A95E1F7D501189679
:10262000ED91FC91199757969C9157971A966D9139
:102630007C911B971C96ED90FD900D911C911F971E
:1026400050964D905D906D907C90539754964D911F
:102650005C91559714968D909D90AD90BC90179776
:102660008D829E82AF82B886FA87E9877C876B87E6
:10267000ED86FE860F87188B498A5A8A6B8A7C8A78
:102680005E8B4D8B988F898F89E1FE013196D90140
:1026900001900D928A95E1F7C6010E94A70982CDAB
:1026A000E12C5ACF412C512C32016DCF90E018A96A
:1026B0008FEF113009F488CF890D8330F0F026E0D8
:1026C000921639F139E0931621F189AD8D70883079
:1026D000B1F041E0E41699F054E0951639F19130EB
:1026E00001F1F41601F19F2DEF2C68CF212C312C34
:1026F000812CF12C90E0E12C61CF85E065CF83E067
:1027000063CFB8EC4B1651046104710409F04ACD53
:1027100048CD84E081105CCFF60136A121E023A7EB
:102720005ECF82E0F7CFE92E81E0F4CF82E0811026
:102730004FCF81E0D6019B968C93E12C82E021E083
:1027400051CFAF92BF92DF92EF92FF920F931F9300
:10275000CF93DF93CDB7DEB769970FB6F894DEBF9E
:102760000FBECDBF8C015B017C0183EEE81A8EEFBA
:10277000F80AF701D08040EC61E0C8010E949005A2
:10278000811126C0BE016F5F7F4FC8010E9471108A
:1027900081111EC041E06FEFC8010E9490058111B8
:1027A00017C0A50166EBC8010E948F08811110C0F7
:1027B00040E06FEFC8010E949005811109C04D2DC6
:1027C00061E0C8010E949005811102C0F701D0822A
:1027D00069960FB6F894DEBF0FBECDBFDF91CF91E3
:1027E0001F910F91FF90EF90DF90BF90AF900895F1
:1027F0002F923F924F925F926F927F928F929F9211
:10280000AF92BF92CF92DF92EF92FF920F931F93FE
:10281000CF93DF93CDB7DEB7AC970FB6F894DEBF9A
:102820000FBECDBF1C017FA36EA359A748A71F826F
:10283000188619861A861B861C861D861E86198A8E
:102840001A8AFC01E85DFE4F20813181398F288F83
:10285000AC014F5E5E4F5B8F4A8FDA011C922C01F8
:10286000BEEE4B1ABEEF5B0AF20110823C01FDEE98
:102870006F1AFEEF7F0AD3011C92FC01EC5EFE4F43
:102880001082319610823196108241E06FEF0E94E3
:1028900090058B8B81111DC140E06FE4C1010E9446
:1028A00090058B8B811115C14CE26EE4C1010E9431
:1028B00090058B8B81110DC140E06FEFC1010E942B
:1028C00090058B8B811105C144EB66EBC1010E9421
:1028D00090058B8B8111FDC040E060E8C1010E9432
:1028E00090058B8B8111F5C020E0AE014E5E5F4FED
:1028F000BE016F5E7F4FC1010E94FC0F8B8B811167
:10290000E8C01F82188619861A86F101E95EFE4F1B
:10291000FD8FEC8F9E01295F3F4F4901A3E0AA2E56
:10292000B12CC12CD12CE12CF12C87012A8D3B8DAF
:10293000AF0160E0C1010E9461078B8B8111C9C0AA
:102940004F81588569857A854C8B5D8B6E8B7F8B2B
:10295000BE01615F7F4FC1010E94A1138B8B81116A
:10296000B8C08F859889688D798D6817790708F0C8
:10297000D3C0AA8DBB8D1C92F2011082D3011C9290
:102980003296108231961082319610828C899D8900
:10299000AE89BF898C549F4FAF4FBF4FE6E0B695CD
:1029A000A79597958795EA95D1F7880F991F880F76
:1029B000991F8D509E4FFC0180819181A281B3812E
:1029C000892B8A2B8B2B91F42C893D894E895F8929
:1029D0002C3231054105510548F42F5F3F4F4F4FD1
:1029E0005F4F2C8B3D8B4E8B5F8BD0CFAE01495F01
:1029F0005F4F4A0173E0A72EB12CC12CD12CEC887B
:102A0000FD880E891F892A8D3B8D4C8D5D8D61E07F
:102A1000C1010E946107811159C16F817885898543
:102A20009A856C8B7D8B8E8B9F8BBE01615F7F4FF8
:102A3000C1010E94A113811149C18F859889A88D78
:102A4000B98D11E063E0462E512C612C712CA81732
:102A5000B90720F010E0412C512C3201C12CD12CAF
:102A60007601C39460C0D501C4010196A11DB11DBA
:102A70008C8B9D8BAE8BBF8B86E0EAA5FBA5ACA5AE
:102A8000B02F01900D928A95E1F74E8C5F8C68A073
:102A900079A04AA35BA36CA37DA36FC04E8C5F8C0F
:102AA00068A079A0AEA1BFA14D925D926D927C927B
:102AB0001397E8A5F9A51083F101EC5FFE4F81E0C3
:102AC000808332978C918083A8A5B9A58C9131968B
:102AD00080838B89AC960FB6F894DEBF0FBECDBF56
:102AE000DF91CF911F910F91FF90EF90DF90CF90EA
:102AF000BF90AF909F908F907F906F905F904F901E
:102B00003F902F900895BEECBB8BE3CFEEECEB8BA8
:102B1000E0CFFEECFB8BDDCF10E0412C512C3201DD
:102B2000C12CD12C76018F859889288D398D8217FB
:102B3000930708F0B7CF46E0EA8DFB8D9E012F5F2B
:102B40003F4FD90101900D924A95E1F7E88DF98D3B
:102B50008E1B9F0BAC0170E060E04AA35BA36CA3EB
:102B60007DA353E0452E512C612C712CB1016F5E79
:102B70007E4F7BA76AA72CA7032F9E01255F3F4F9F
:102B80004C895D896E897F898C8D9D8D0E94F100B5
:102B90008B849C84AD84BE847FEF87169706A7063E
:102BA000B70609F4B0CFD301C2010196A11DB11D32
:102BB0008E8F9F8FA8A3B9A3D501C4018C549F4FBA
:102BC000AF4FBF4F36E0B695A795979587953A9545
:102BD000D1F7880F991F880F991F8D509E4F11E0D4
:102BE000FC0180819181A281B381892B8A2B8B2B5F
:102BF00009F410E0812F90E0B0E0A0E08C159D0575
:102C0000AE05BF0509F082CFD501C40123E0B6951A
:102C1000A795979587952A95D1F7B501A401477097
:102C200055276627772786309105A105B10508F05D
:102C300070CFEA8DFB8DE80FF91F21E030E001C075
:102C4000220F4A95EAF78081822B80836A8D7B8DE3
:102C5000C1010E94B805811139C0BE01615F7F4F7B
:102C6000C1010E94A113811131C08F859889288DDF
:102C7000398DAC01421B530B8217930711F450E0BE
:102C800040E070E060E0A88DB98DA817B90708F0A2
:102C9000EACE8AA19BA1ACA1BDA184179507A60786
:102CA000B70708F0FBCEBE016F5F7F4FC1010E94E6
:102CB000B80596E0FE013196D101AF5EBE4F01909E
:102CC0000D929A95E1F7882309F4ECCE8B8B01CF16
:102CD0009F92AF92BF92CF92DF92EF92FF920F93AB
:102CE0001F93CF93DF93CDB7DEB7A0970FB6F894BD
:102CF000DEBF0FBECDBF6C012FEDC20ED11CF601A1
:102D0000A080F7E0F12CAF1609F4EEC0B62E8C01CE
:102D100041E060E80E949005F82E41E06FEFC801A5
:102D20000E949005F82A40E060E0C8010E949005EA
:102D3000F82A46E06FEFC8010E949005F82AAE011C
:102D4000425E5F4F63E8C8010E948A09F82A4E8DEF
:102D5000446063E8C8010E949005F82A47E06FEFDD
:102D6000C8010E949005F82A41E061E8C8010E946C
:102D70009005F82A0E94C900F82A41E060E8C801DD
:102D80000E949005F82A21E0B212C1C0A0FC02C244
:102D90004BE664E9C8010E949005E82EC8010E9434
:102DA000520A8E29F82AAE01465E5F4F60E9C801DB
:102DB0000E944608F82A8A8D9B8DAC8DBD8D992E78
:102DC000E89497F897FBEE24E0F844E264E9C80140
:102DD0000E949005F82AC8010E94520AF82AAE0102
:102DE000465E5F4F60E9C8010E944608F82A8A8D56
:102DF0009B8D2C8D3D8D3C8B2D8B9E8B8F8B45E23F
:102E000064E9C8010E949005F82AC8010E94520A8C
:102E1000F82AAE01465E5F4F60E9C8010E9446088D
:102E2000F82A8C8D9D8D988F898F40E061E8C801CC
:102E30000E949005F82A46E06FEFC8010E949005B5
:102E4000F82AAE01425E5F4F63E8C8010E948A091A
:102E5000F82A4E8D4B7F63E8C8010E949005F82A3E
:102E600041E06FEFC8010E949005F82A41E060E060
:102E7000C8010E949005F82A40E06FEFC8010E9447
:102E80009005F82A40E060E8C8010E949005F82A01
:102E900059F5F1E0BF1699F0A1FC23C0F801E0520A
:102EA000FF4F8F8D8083319688A18083BE016F5F35
:102EB0007F4FC8018E519F4F0E94352412C0A0FC45
:102EC00010C0F801EE5FFE4F90823196E082DE0185
:102ED00054967496035E1E4F8D9181930E171F07B3
:102EE000D9F7BA28F601B0828F2DA0960FB6F894C4
:102EF000DEBF0FBECDBFDF91CF911F910F91FF902D
:102F0000EF90DF90CF90BF90AF909F900895A1FC7D
:102F100041C142E064E9C8010E949005E82EC80161
:102F20000E94520A8E29F82AAE01415E5F4F60E985
:102F3000C8010E948A09F82A4BE764E9C8010E9487
:102F40009005F82AC8010E94520AF82AAE01405E94
:102F50005F4F60E9C8010E948A09F82A47E764E9DF
:102F6000C8010E949005F82AC8010E94520AF82A56
:102F7000AE01465E5F4F60E9C8010E944608F82A2C
:102F80004A8D5B8D6C8D7D8DDB01CA0129E1B69583
:102F9000A795979587952A95D1F78983DB01CA0173
:102FA00032E1B695A795979587953A95D1F78F77A2
:102FB0008A83DB01CA01EBE0B695A79597958795C3
:102FC000EA95D1F78F778B83DB01CA01F4E0B695E0
:102FD000A79597958795FA95D1F78F778C83440FAE
:102FE000440F440F48774E8F48E764E9C8010E94B8
:102FF0009005F82AC8010E94520AF82AAE01465EDE
:103000005F4F60E9C8010E944608F82A8A8D9B8DAF
:10301000AC8DBD8DAC01BD012DE1769567955795C1
:1030200047952A95D1F72E8D240F2D83AC01BD0134
:1030300036E176956795579547953A95D1F74F774D
:103040004E83AC01BD01EFE07695679557954795A6
:10305000EA95D1F74F774F83292F2F772887AC0137
:10306000BD0176956795579547954F774987982F76
:103070009295990F990F90749E8F49E764E9C80162
:103080000E949005F82AC8010E94520AF82AAE014F
:10309000465E5F4F60E9C8010E944608F82A8A8DA3
:1030A0009B8DAC8DBD8DAC01BD012AE176956795F8
:1030B000579547952A95D1F72E8D240F2A87AC0175
:1030C000BD0133E176956795579547953A95D1F7C8
:1030D0004F774B87AC01BD01ECE07695679557952E
:1030E0004795EA95D1F74F774C87AC01BD01F5E0E4
:1030F0007695679557954795FA95D1F74F774D8710
:10310000982F990F990F9C779E8F4AE764E9C80121
:103110000E949005F82AC8010E94520AF82AAE01BE
:10312000465E5F4F60E9C8010E944608F82A8A8D12
:103130009B8DAC8DBD8DAC01BD012EE17695679563
:10314000579547952A95D1F72E8D240F2E87AC01E0
:10315000BD0137E176956795579547953A95D1F733
:103160004F774F872A2F2F77288BAC01BD01E9E0DD
:103170007695679557954795EA95D1F74F77498B9F
:10318000F2E0B695A79597958795FA95D1F78F7741
:103190008A8B1B8AE12C912C48CE2F923F924F9222
:1031A0005F926F927F928F929F92AF92BF92CF92D7
:1031B000DF92EF92FF920F931F93CF93DF93CDB7E0
:1031C000DEB7C755D1090FB6F894DEBF0FBECDBF2D
:1031D0003C01C62EAC01485B5E4F60965FAF4EAFC0
:1031E0006097DA01ED91FC911197EF5BFE4F89E258
:1031F0008083ED91FC911197EE5BFE4F81E080831F
:10320000ED91FC911197ED5BFE4F80E991E0918388
:103210008083ED91FC91EB5BFE4F84E994E0918318
:1032200080831092F6031092F5031092F40310922B
:10323000F3030E94770382E791E09093F203809377
:10324000F10383E791E09093F0038093EF03230170
:10325000BFEF4B1A5B0A21E04EEF69E8C2010E9402
:103260003909811105C040E068E8C2010E9490055B
:10327000FE01FB962A96FFAFEEAF2A97AF0160ECF6
:10328000C2010E948A09F301E052FF4F108288EECA
:1032900093E0E65AFF4F9183808380E991E0329674
:1032A0009183808385E89BE6A1E0B0E0329680833D
:1032B0009183A283B38384EA90E7A9E0B0E0E55765
:1032C000F10980839183A283B383D3015E961D921B
:1032D0001D921D921C929197FE0131962C96FFAF84
:1032E000EEAF2C97BF01C2010E94C00C082F8111C4
:1032F0000BC019821A828AE3FE013196D3015196DE
:1033000001900D928A95E1F784E690E0F301EE5D7D
:10331000FE4F9183808384E893E03296918380838B
:1033200084EF91E032969183808380E09AE0339637
:103330009183808381E07096808341E060E8C201E0
:103340000E949005182F41E06FEFC2010E94900586
:10335000182B102B40E060E0C2010E949005182B52
:10336000AE01415C5F4F61E9C2010E948A09182BDE
:103370008FADF301E85DFE4F808341E060E0C20164
:103380000E949005182B40E06FEFC2010E9490054B
:10339000182B40E060E8C2010E949005912F982B05
:1033A000130110E000E0DD24D3947301F4E0EF0E8C
:1033B000F11C9111B5C10330110509F491C07CF4E1
:1033C00001301105D1F00230110509F485C0D30197
:1033D0009696DC92D1019696DC9280E020C0043073
:1033E000110509F480C020E04FEE0530110579F792
:1033F00060E6C2010E94390910C0F70142A953A931
:1034000064A975A9B9E07695679557954795BA95DA
:10341000D1F764E4C2010E9466058823D9F20F5FE8
:103420001F4FBFEF2B1A3B0A982F0630110509F0EA
:10343000C0CF811169C0F30110A611A622E04EEFA2
:1034400060E6C2010E94390981115EC0D3019A96DB
:103450001C9220E14FEE60E6C2010E943909811101
:1034600053C0F30113A686A1811140C080E090E013
:10347000A2E1B0E082AB93ABA4ABB5ABD30197961E
:103480008C91811138C080E090E4A0E0B0E0F301BD
:1034900086AB97ABA0AFB1AF80E090E0A3E2B0E025
:1034A00082AF93AFA4AFB5AFFE96108211821282A5
:1034B00013828FEFE052FF4F80834FEF61E0C20134
:1034C0000E94900591E0F301E05EFE4F9083811130
:1034D0001BC07B97108218C0D3019896DC927ACFDC
:1034E000F301D1A677CF20E04EEF82CF80E090E0CD
:1034F000A2E1B0E0BFCF40E250E064E4C2010E942C
:103500006605882309F4BFCFD3018C934C2D6AE85C
:103510006096EEADFFAD6097808191810E9490052D
:10352000D3018C936AE070E080E090E00E94120387
:10353000F30180818111B8C16096AEADBFAD6097D7
:10354000ED91FC91EF5BFE4FC08262E0C2010E94F0
:103550006816811135C08301065B1E4FC301865773
:103560009E4FF301EF51FF4F20812111DBC069E233
:1035700072E00E9435246AE272E0C8010E9435249C
:1035800063E672E0C80180960E943524A301465587
:103590005E4F60ECC2010E948A09811111C0AE0128
:1035A0004F5F5F4F62ECC2010E948A0991E0F30114
:1035B000E555FE4F90833196998192959F70908347
:1035C000D3018C9381110DC0F301E555FE4F80812D
:1035D000813021F431968081813019F08BEFF30135
:1035E0008083D3018C918111D1C06096EEADFFAD87
:1035F0006097408051808AE32C96AEADBFAD2C978A
:103600001D928A95E9F725961FAE1EAE259728963E
:103610001FAE289727961FAE279723961CAE1DAE88
:103620001EAE1FAE239761E0C2010E946816F20130
:10363000ED5FFE4F3080B1E0B31508F498C03197CC
:103640002080A22CB12CD12CC12C3B1289C0E1E2EC
:10365000AE16B104C104D10408F089C041E06FEF97
:10366000C2010E94900581111AC040E06FE4C201BE
:103670000E949005811113C04CE26EE4C2010E94C9
:10368000900581110CC040E06FEFC2010E949005CF
:10369000811105C044EB66EBC2010E9490059201C6
:1036A0002F5E3E4FD9011C92F201EE5EFE4F10825A
:1036B00031961082319610823196108231961082A6
:1036C000E12CF12C8701332009F409C1D801C7018D
:1036D0008C549F4FAF4FBF4FF6E0B695A795979587
:1036E0008795FA95D1F7880F991F880F991F8D50EC
:1036F0009E4FFC0180819181A281B381892B8A2B0D
:103700008B2B09F0ECC0FCE2EF16F104010511056A
:1037100009F4E5C04FEFE41AF40A0F4F1F4FD6CF5C
:10372000892FF2CEF301EE51FF4FF080B3016D51BE
:103730007F4F0E943524FF2009F41DCFB2E2BF1550
:1037400040F0E0E266E372E0FE1217CF62E472E05E
:1037500014CFF6E26EE472E0FF1508F40ECFF6CF58
:10376000FDE0AF16B104C104D10408F477CFAE0177
:103770004A5B5F4FBE01615C7F4FC2010E94F8133C
:10378000B82EBB2009F4C1C0F301B082D3018C91E3
:10379000811110C0AE014D5B5F4FBE016F5F7F4F67
:1037A0006096EEADFFAD6097808191810E94F81325
:1037B000D3018C93F3018081811111C021E0AE010E
:1037C000455C5F4FBE01615C7F4F6096AEADBFADA3
:1037D00060978D919C910E94FC0FF3018083D3012F
:1037E0008C91811109C06096AEADBFAD6097ED912F
:1037F000FC91108AF3011082D3018C9181110AC0CF
:103800006096AEADBFAD6097ED91FC9181E085A370
:10381000F3011082D3018C9181111FC06096EEAD2F
:10382000FFAD609700811181D801D5964D915D91D2
:103830006D917C91D89799E07695679557954795C6
:103840009A95D1F764E4C8010E946605811103C00E
:1038500091E0F80196A3D3018C93F301808181114B
:103860000AC06096AEADBFAD6097ED91FC9181E06E
:1038700080A7F3011082D3018C91811111C0609651
:10388000AEADBFAD6097ED91FC91FD9684ED98E0F3
:10389000A0E0B0E080839183A283B383F301108220
:1038A00081E0D3019C91911180E0C95ADF4F0FB69E
:1038B000F894DEBF0FBECDBFDF91CF911F910F9166
:1038C000FF90EF90DF90CF90BF90AF909F908F9040
:1038D0007F906F905F904F903F902F900895CE0112
:1038E000CB964C01A201495E5E4F632DC2010E943E
:1038F0006107B82E811145CF81E0F201EC5FFE4FE8
:1039000080833297208231963082F201E85CFE4F4C
:1039100080818111DEC13297C080D18030E020E00B
:103920004201BBEB8B1ABEEF9B0AF201EF5BFE4F2D
:103930002E96FFAFEEAF2E97A2014D5D5E4F6296C1
:103940005FAF4EAF6297C2018F5D9E4F64969FAF8F
:103950008EAF6497D201AB5DBE4F6696BFAFAEAF80
:10396000669779976896FFAFEEAF689703C0ECEF64
:10397000BE2E9101F601E20FF31F0081002309F42E
:103980008DC0B11001CF19019FEF291A390AD60154
:10399000A20DB31D6C910F3F09F04FC01901A2E0B9
:1039A0002A0E311CD601A20DB31D8C91613029F174
:1039B00098F0623099F16330D1F6190144E0240E99
:1039C000311C238190E0982F8827820F911D6896E3
:1039D000AEADBFAD68971FC01901B4E02B0E311C0E
:1039E000238190E0982F8827820F911D6496EEAD79
:1039F000FFAD649791838083BCCF190144E0240E0E
:103A0000311C238190E0982F8827820F911D6296A8
:103A1000AEADBFAD62978D939C93ABCF1901B4E06F
:103A20002B0E311C238190E0982F8827820F911D47
:103A30006696EEADFFAD6697DDCF053008F097CF07
:103A40002E5F3F4FD601A20FB31FFE01FB96202E23
:103A5000312CCF012A964EAD5FAD2A97841B950B72
:103A6000821593051CF48D918193F3CF220E331EA2
:103A7000D401ED90FC9010E030E020E0AE01455C18
:103A80005F4F2E96EEADFFAD2E9780810E942505EB
:103A9000892B09F46ECF7CEEB72E6BCFB11074CEAC
:103AA00044E06AE0C2010E949005B82E81116CCEFC
:103AB00020E04FEE64E8C2010E943909B82E81115E
:103AC00063CE84E0F201E253FF4F8083C2010E9483
:103AD000A709B82E811158CE41E06FEFC2010E94B4
:103AE0009005B82EAE014D5B5F4F64E8C2010E94A5
:103AF0008F08B82A40E06FEFC2010E949005B82AF3
:103B000009F042CEF201E853FF4F25968EAD9FADEE
:103B1000259724E0880F991F2A95E1F7B0E0A0E0EF
:103B200080839183A283B383BE016F5F7F4FC20105
:103B30000E94C00CB82E811127CEAE01495B5F4FA9
:103B400069E0C2010E948A09B82E81111DCE289613
:103B50008FAD2897817028968FAF2897F201E25E8B
:103B6000FE4F80838AE3FE013196D2015096019088
:103B70000D928A95E1F7AE01495B5F4F61E0C201AA
:103B80000E948A09B82E8111FFCD8201035E1E4F6B
:103B900028968FAD2897D8018C931BAEAE01455C5B
:103BA0005F4F61E0C2010E948A09B82E8111ECCDFD
:103BB0008BADF82EE894F4F884FF14C04F2D61E02B
:103BC000C2010E949005B82E8111DECDF801F0826D
:103BD000D20152964D915D916D917C915597C201A4
:103BE0000E947F0E1BAEAE01455C5F4F61E0C201DB
:103BF0000E948A09B82E8111C7CD8BADF82EE894AA
:103C0000F2F882FF14C04F2D61E0C2010E949005BE
:103C1000B82E8111B9CDF801F082D20152964D91A2
:103C20005D916D917C915597C2010E947F0E83E05A
:103C3000F201E15EFE4F8083AE014B5B5F4F60E0BF
:103C4000C2010E94330AB82E81119ECD26968FADF7
:103C50002697F201E852FF4F8083AE014B5B5F4F26
:103C600061E0C2010E94330AB82E81118DCD2696E3
:103C70008FAD2697F201ED52FF4F8083AE01455C78
:103C80005F4F63E0C2010E94690CB82E81117CCDA8
:103C90008BAD9CADADADBEADF201EC52FF4F80835C
:103CA0009183A283B383AE01455C5F4F64E0C201A0
:103CB0000E94690CB82E811167CDF201E153FF4FCC
:103CC0008BAD9CADADADBEAD80839183A283B3833C
:103CD0005BCD80E0C82E81E0D82E20CE1F93CF93FD
:103CE000DF9300D000D0CDB7DEB787EF93E00E941E
:103CF000D00187EF93E00E94D00110E08A3379F081
:103D0000E1E0F0E0EC0FFD1FE10FF11D17FDFA956A
:103D100080831F5F87EF93E00E94D001EFCFCE0139
:103D200001960E94A923182F87EF93E00E94D001EB
:103D30008053990B8230910520F4682F812F0E94C7
:103D4000A10287EF93E00E94D0018A3011F08D30FC
:103D5000C1F787EF93E00E94E4018A3021F487EFF6
:103D600093E00E94D0010F900F900F900F90DF9181
:103D7000CF911F91089585ED8093BC008091410300
:103D800090914203A0914303B09144030796A11D73
:103D9000B11D23E0B695A795979587952A95D1F7FC
:103DA0002091BC0024FD03C010928A030895409125
:103DB0004103509142036091430370914403452BAA
:103DC000462B472B69F30097A105B10541F025E388
:103DD0002A95F1F700000197A109B109E1CF80917F
:103DE00040030C9495031F920F920FB60F9211246B
:103DF0002F933F934F935F936F937F938F939F93F3
:103E0000AF93BF93EF93FF9387EF93E00E9412026B
:103E1000FF91EF91BF91AF919F918F917F916F91A2
:103E20005F914F913F912F910F900FBE0F901F9078
:103E300018951F920F920FB60F9211242F938F9304
:103E40009F93EF93FF93E0910704F0910804808122
:103E5000E0910D04F0910E0482FD1BC090818091D1
:103E600010048F5F8F7320911104821741F0E0914D
:103E70001004F0E0E950FC4F958F80931004FF91FF
:103E8000EF919F918F912F910F900FBE0F901F90E8
:103E900018958081F4CF1F920F920FB60F921124C4
:103EA0002F933F938F939F93AF93BF938091B103D1
:103EB0009091B203A091B303B091B4033091B003D9
:103EC00023E0230F2D3758F50196A11DB11D209336
:103ED000B0038093B1039093B203A093B303B09364
:103EE000B4038091B5039091B603A091B703B0914C
:103EF000B8030196A11DB11D8093B5039093B6033D
:103F0000A093B703B093B803BF91AF919F918F91E6
:103F10003F912F910F900FBE0F901F90189526E89C
:103F2000230F0296A11DB11DD2CF1F920F920FB683
:103F30000F9211242F933F934F935F936F937F932F
:103F40008F939F93AF93BF93EF93FF938091B900AB
:103F5000887F803609F44AC0F0F5883209F4A7C09A
:103F600018F5803109F49BC0B8F4882309F4F9C02E
:103F7000883009F494C0FF91EF91BF91AF919F9168
:103F80008F917F916F915F914F913F912F910F9002
:103F90000FBE0F901F901895883109F488C08032A9
:103FA00051F78093890314C0803409F49DC040F414
:103FB0008033B9F38833F9F68093890385ECB0C078
:103FC000803509F485C0883509F496C0883499F69F
:103FD0000E94BB1ED0CF883909F48CC038F58837D1
:103FE00029F050F4883611F0803729F683E0809369
:103FF0008A031092880357C0883809F47BC080393F
:1040000019F0803809F0B7CF80918803803208F02A
:1040100071C0E091880381E08E0F809388038091C6
:10402000BB00F0E0E859FC4F80833DC0803B39F095
:10403000E0F4803A09F479C0883A09F09CCF84E032
:1040400080938A031092670310926603E091F10354
:10405000F091F20309958091660381110FC081E010
:10406000809366031092460309C0803C09F4A6CFF2
:10407000883C09F4A3CF883B09F07DCFE09167032A
:1040800081E08E0F80936703F0E0EA5BFC4F808154
:104090008093BB00909167038091660329C0809153
:1040A000AF038093BB0085EC8093BC0064CF9091FC
:1040B000AE038091AD03981758F5E091AE0381E00F
:1040C0008E0F8093AE03F0E0E357FC4F8081E9CF81
:1040D000E091AE0381E08E0F8093AE038091BB0030
:1040E000F0E0E357FC4F80839091AE038091AD03E5
:1040F0009817C8F285E8D8CFE091AE0381E08E0F23
:104100008093AE038091BB00F0E0E357FC4F8083C7
:1041100080918C0381115CCF81E080938B0384EAD2
:104120008093BC0010928A0326CF85EC8093BC005C
:1041300010928A0380918803803230F4E0918803E2
:10414000F0E0E859FC4F10826091880370E0E09144
:10415000EF03F091F00388E693E00995109288034D
:104160000ACF1092890334CFE7EFF3E01382128273
:1041700088EE93E0A0E0B0E084839583A683B783C4
:1041800027E032E03183208325EC30E03587248737
:1041900024EC30E03787268720EC30E0318B208B11
:1041A00021EC30E0338B228B22EC30E0358B248BFA
:1041B00026EC30E0378B268B118E128E138E148EE8
:1041C000E4E9F4E01382128284839583A683B783A3
:1041D00089E192E091838083E0EAF4E0168217821D
:1041E0001086118612861386148615861686178603
:1041F000108A118A128A138A148A158A8DEA91E02C
:10420000E3E9F6E0DF019C011D9221503040E1F727
:1042100024E936E03093DC072093DB07E6EEF4E098
:10422000DF019C011D9221503040E1F787EE94E0C0
:1042300090932F0680932E060895789484B582601B
:1042400084BD84B5816084BD85B5826085BD85B53A
:10425000816085BD80916E00816080936E001092B8
:104260008100809181008260809381008091810033
:1042700081608093810080918000816080938000C4
:104280008091B10084608093B1008091B000816022
:104290008093B00080917A00846080937A0080914E
:1042A0007A00826080937A0080917A0081608093A6
:1042B0007A0080917A00806880937A001092C10021
:1042C0001092E2041092E3041092E4041092E504C8
:1042D0001092A2041092A3041092A4041092A504B8
:1042E0000E9444036B017C014B015C0128EB820EB0
:1042F0002BE0921EA11CB11C0E9444036C157D058D
:104300008E059F0528F086169706A806B906A0F721
:1043100068EE73E080E090E00E9412030E94A1002A
:104320000E9444036093A2047093A3048093A404A6
:104330009093A5048BE692E00E94D7050E94440367
:104340006B017C014B015C013AE0830E911CA11CC6
:10435000B11C0E9444036C157D058E059F0528F055
:1043600086169706A806B906A0F781E08093B604E2
:104370000E9444036093A2047093A3048093A40456
:104380009093A5048CE792E00E94D7050E94A100BB
:1043900087E00E94740186E00E94740160E087E07B
:1043A0000E94A10260E086E00E94A10260E087E036
:1043B0000E94A10260E086E00E94A1026AE070E033
:1043C00080E090E00E94120361E087E00E94A10279
:1043D00061E086E00E94A1026AE070E080E090E087
:1043E0000E94120361E087E00E94A10260E086E083
:1043F0000E94A10260E383E996E00E94CD1881113A
:1044000005C086E990E00E942806FFCF6AE070E0D0
:1044100080E090E00E94120361E086E00E94A10229
:104420006AE070E080E090E00E94120361E386EEB3
:1044300094E00E94CD18882309F4FBC0C0E0D0E0CE
:1044400084EF882E99249394A12CB12C0E944403CC
:10445000672B682B692B09F4F1C00E944403C090BC
:10446000EB03D090EC03E090ED03F090EE036C15BD
:104470007D058E059F0508F45DC1C090EB03D090CB
:10448000EC03E090ED03F090EE039B01AC012C19DE
:104490003D094E095F0969017A013AEFC316D1045B
:1044A000E104F10408F4D2C06093EB037093EC03D1
:1044B0008093ED039093EE038092AE049092AF044C
:1044C000A092B004B092B1041092B2041092B3045E
:1044D0001092B4041092B5048091A6049091A704A0
:1044E000A091A804B091A9048093AA049093AB046E
:1044F000A093AC04B093AD040E9444036093A6045F
:104500007093A7048093A8049093A90487EF93E085
:104510000E94E401843611F40E946E1E0E9444033E
:104520006093A2047093A3048093A4049093A504C1
:104530000E9444036B017C0183E892E00E94D7054E
:104540004AE061E070E080E090E00E94E4058AE8E3
:1045500092E00E94D7054AE0C701B6010E94E40537
:104560008CE892E00E94D7058091A6049091A70460
:10457000A091A804B091A904A7019601281B390BAA
:104580004A0B5B0BCA01B9014AE00E94E4058CE8C2
:1045900092E00E94D7056091A6047091A7048091D3
:1045A000A8049091A904C090AA04D090AB04E09014
:1045B000AC04F090AD046C197D098E099F094AE0A6
:1045C0000E94E4058EE892E00E94D7050E94440311
:1045D0004AE00E94E40580E992E00E9448060E94B9
:1045E00044032B013C017C016B0135E0C30ED11C5F
:1045F000E11CF11C0E9444036415750586059705AE
:1046000028F0C616D706E806F906A0F787EF93E06C
:104610000E94E401843611F40E946E1E0E9444033D
:104620006093A6047093A7048093A8049093A904B0
:104630000DC08CE790E00E942806FFCF0E94440343
:10464000623071058105910508F007CF62ED73E0D6
:104650008091DB079091DC070E94711069EB73E099
:1046600080912E0690912F060E94711087E992E0AA
:104670000E94D7058091EA03843011F18091DA031A
:104680009091DB038D32914020F48BE992E00E94FF
:1046900048068091DA039091DB03853F914020F436
:1046A00086EB92E00E9448068091DA039091DB034A
:1046B000893E934008F047C081ED92E00E94480691
:1046C00089EF92E00E94D7058091D103843009F1EF
:1046D0008091C1039091C2038D32914020F48BE907
:1046E00092E00E9448068091DA039091DB03853FB7
:1046F000914020F486EB92E00E9448068091DA0314
:104700009091DB03893E934008F581ED92E00E9491
:10471000480664E670E080E090E00E941203209773
:1047200009F494CE0E94FE01882309F48FCE0E94E2
:1047300000008CCE6093EB037093EC038093ED0349
:104740009093EE039ACE8AEE92E0B8CF8AEE92E092
:10475000DECFFC0188279927E89421912032E9F3E4
:10476000293010F02E30C8F32B3241F02D3239F4BD
:10477000689404C00E94C723820F911D2191205389
:104780002A30C0F31EF4909581959F4F08957AE0EA
:10479000979F902D879F802D910D11240895DB0107
:1047A0008F939F930E940124BF91AF91A29F800D90
:1047B000911DA39F900DB29F900D11240895A1E229
:1047C0001A2EAA1BBB1BFD010DC0AA1FBB1FEE1F8B
:1047D000FF1FA217B307E407F50720F0A21BB30BD6
:1047E000E40BF50B661F771F881F991F1A9469F752
:1047F00060957095809590959B01AC01BD01CF01AE
:1048000008950E940C24A59F900DB49F900DA49F25
:10481000800D911D11240895A29FB001B39FC00186
:10482000A39F700D811D1124911DB29F700D811DDC
:104830001124911D0895AA1BBB1B51E107C0AA1F9B
:10484000BB1FA617B70710F0A61BB70B881F991F31
:104850005A95A9F780959095BC01CD010895EE0F6A
:10486000FF1F0590F491E02D0994FB01DC010190FC
:0C4870000D920020E1F70895F894FFCFAE
:10487C0001FF0101000001FF00010900011000010E
:10488C0011000124010125FF01750001FF01014EFA
:10489C002C01480001302001FF00013009015400B7
:1048AC0001310401320301408301462501600001FE
:1048BC00270001500601510001529601560801577C
:1048CC00300161000162000164000165000166A015
:1048DC0001FF010122320147140149FF014A000185
:1048EC00FF00017A0A017B0001782101FF010123FD
:1048FC00340142000144FF014526014605014040B8
:10490C00010E0601201A01434001FF00013403018E
:10491C00354401FF01013104014B09014C05014DE6
:10492C000401FF000144000145200147080148280B
:10493C000167000170040171010172FE0176000132
:10494C00770001FF01010D0101FF00018001010150
:10495C00F801FF01018E0101000101FF000180003F
:10496C000000000A00000005000000000000000527
:10497C000000000000000034029301C1018102F22A
:10498C0001D001E401000000000C04DF032205C08B
:10499C0001D803C503B6030D0A00564C35334C3011
:1049AC00582054533000564C35334C305820545307
:1049BC003100564C35334C30582054533200564C41
:1049CC0035334C305820455331206F72206C617454
:1049DC00657200564C35334C305800564D44505689
:1049EC005F317C315F564D4450560A00564D445051
:1049FC00525F00564D4450455F003A323A007C00FD
:104A0C005F564D44504500313A20004F626A657440
:104A1C006F2061203330636D20646520646973748A
:104A2C00616E636961004F626A65746F2061203545
:104A3C0030636D2064652064697374616E636961B1
:104A4C00004F626A65746F206120316D20646520AF
:104A5C0064697374616E6369610046756572612087
:0E4A6C0064652072616E676F00323A200000B0
:00000001FF
